:0D066F0044697374616E63653A004D4D007F
:1004E700E4F508F50912064C1206A77BFF7A067990
:1004F7006F7D017F011205ED7BFF7A0679797D0813
:100507007F021205ED12030AE4FBFA792078411203
:1005170000031201E78E088F09750E04AB09AA08BC
:090527007D017F021205C980DC90
:10059E00E4FDFCEFFB3395E0FAC3ED9BEA6480F8D3
:0605AE00EC64809850147B
:0D05B400007527027528C7D528FDD527FA48
:0705C1000DBD00010C80D903
:0105C8002210
:0506AE00007F06DFFEE5
:0106B3002224
:0B068800438901E4F58CF58AC28C2246
:0706A700C2A1D2A0020688E7
:10030A00E4F521F520F51FF51EF9F522E9FF3395ED
:10031A00E0FEC3EF940AEE648094805037D2A112B3
:10032A0006AEC2A130A0FDE4F58CF58AD28C20A0DD
:10033A00FDC28CAF8CEFFEAD8A7C00E42DFFEC3E53
:10034A00FEE925E0240AF8A60608A6077F5012054A
:10035A009E0980B8E4F9E9FF3395E0FEC3EF9409FA
:10036A00EE648094805062E904F522AF22EF33955F
:10037A00E0FEC3EF940AEE648094805049EF25E0D2
:10038A00240AF8E6FE08E6FFE925E0240AF8E6FC76
:10039A0008E6FDD39FEE6480F8EC6480984023E57C
:1003AA002225E0240AF8E6FE08E6FFE925E0240A09
:1003BA00F8A60608A607E52225E0240AF8A60408F6
:1003CA00A605052280A509808D7902E9FF3395E00B
:1003DA00FEC3EF9408EE648094805028E925E02457
:1003EA000AF8E6FE08E6FFEE3395E0FDFCE5212F6C
:1003FA00F521E5203EF520E51F3DF51FE51E3CF5FC
:10040A001E0980C7AF21AE20AD1FAC1EEC1201A998
:10041A00E4FBFA79C0784012010C8F268E258D24D0
:10042A008C237F077E427DB27C39AB26AA25A9247C
:10043A00A823120003E4FBFAF9784012010CE4FB4A
:08044A00FA79C87842020003B0
:06066000C2A58F80D2A7A5
:080666007F027EEFDEFEDFFCE7
:01066E002269
:0A069300C2A6120660C2A7020666A6
:10061000CFCDCFCECCCE1202A77C007D0A1202A78E
:04062000ED2430FF96
:0A062400D2A6120660C2A702066605
:10062E00AE07EEFB7A0064017004ED148009EB64F2
:0E063E00024A7009ED243F4480FF1206932209
:10064C007F381206937F0C1206937F061206937F57
:04065C0001020693FE
:0A069D00AC0312062EAF040206247F
:0605ED008B0A8A0B890C49
:1005F30012062EE4FDAB0AAA0BA90C8D82758300AB
:0C060300120268FF60061206240D80E958
:01060F0022C8
:0A056D00EF24FFFDEE34FFFC7F0ACF
:080577008E0F8F108C118D1204
:10057F007F017E00E4FBEBC39512E5116480F874F4
:0E058F008098500AAC0FAD101202950B80E858
:01059D00223B
:0405C9008A0C8B0D00
:1005CD0012062EAA0EEAFF7E00D39400748094804A
:0F05DD00400D12056DAC0CAD0D1206101A80E624
:0105EC0022EC
:04049D008B828A8341
:1004A10012062EC3E58364809480400D7F2B1206D3
:1004B1002485832E85822F80107F2D120624C3E48C
:1004C1009582F52FE49583F52EAA2DEAFF7E00D3C0
:1004D100940074809480400D12056DAC2EAD2F12E6
:0504E10006101A80E680
:0104E60022F3
:040452008A328B332C
:1004560012062EAA34EAD39400748094804037EAB8
:1004660024FFFDE434FFFC7F107E00120577AC32DA
:10047600AD33CFCDCFCECCCE1202A7EF540FFEC3F5
:10048600940A74809480EE5004243080022437FF4E
:060496001206241A80BFCB
:01049C00223D
:040530008A378B3843
:1005340012062EAA39EAFF7E00D3940074809480B8
:100544004026EF24FFFDEE34FFFC7F02120577AC5A
:1005540037AD38CFCDCFCECCCE1202A7EF54012485
:0805640030FF1206241A80CDBD
:01056C00226C
:10000300EC4D6011E8497017ED33EC3304600DE4F7
:10001300FCFFFEFD22E933E8330470F802025312B9
:10002300021E58046009E4CC2481500628500902BA
:10003300025D28400302025AC0E0EB4A7044B980D3
:1000430006D0E0FB020249EF4E701CBD8008EBFFB7
:10005300EAFEE9FD80EBE98DF0A4FEE5F00200EC99
:10006300E9CDF9EAFEEBFFEF89F0A4FCE5F0CE89D8
:10007300F0A42EFFE435F0CD89F0A42DFEE435F095
:100083008067EF4E7005BD80D780C3EF8BF0A4ACC3
:10009300F0EE8BF0A42CFCE435F0F8EF8AF0A42CFE
:1000A300E5F038FCE433CB8DF0A42CFCE5F03BF811
:1000B300EE8AF0A42CFCE5F038F8E433CF89F0A401
:1000C3002CFCE5F038CF3400CE89F0A42FFFE5F007
:1000D3003EFEE433C98DF0A42EFEE5F039CD8AF05F
:1000E300A42FFFE5F03EFEE43DFD33D0E0FB5007D7
:1000F3000BBB000F02025DEC2CFCEF33FFEE33FE73
:06010300ED33FD020235A0
:1001090002025DEC5D046005E859047003020253C4
:1001190012021E580460F6EC4860F2EC7004FDFE11
:10012900FF22C860DB2481C85009C39860025006C9
:1001390002025A9850CAF582E9294B4A7005AB82E6
:1001490002024975F0007C1A7880C3EF9BEE9AEDA4
:1001590099400DC3EF9BFFEE9AFEED99FDE842F041
:10016900DC23ACF0D0E0FFD0E0FED0E0FDAB822094
:10017900E7101BEB60BAEC2CFCEF33FFEE33FEED1E
:1001890033FD020235E803F830E705C0F075F000E9
:10019900EF2FFFEE33FEED33FD40B830E7C280AA02
:1001A90075F020800E75F010800575F0087D007ED1
:1001B900007F003392D530D5031202FCEC33401096
:1001C900EF33FFEE33FEED33FDEC33FCD5F0ED22DA
:0E01D900E5F0247EA2D513CC92E7CDCEFF2216
:1001E700EDD2E7CD33EC3392D524814006E4FFFE10
:1001F700FDFC22FCE4CFCECDCC24E0501174FF806F
:10020700EDC3CC13CCCD13CDCE13CECF13CF04700B
:07021700F030D5DE0202FC0D
:10021E00E9D2E7C933E833F892D5EDD2E7CD33EC26
:07022E0033FC5002B2D5229F
:10023500EC30E7100FBF000C0EBE00080DBD00042A
:100245000BEB6014A2D5EB13FCED92E7FD2274FFD6
:10025500FCFDFEFF22E480F8A2D574FF13FC7D802F
:03026500E480EF43
:0300000002067C79
:0C067C00787FE4F6D8FD7581390204E7B0
:10026800BB010CE58229F582E5833AF583E022504B
:1002780006E92582F8E622BBFE06E92582F8E22295
:0D028800E58229F582E5833AF583E49322AF
:10029500EF8DF0A4A8F0CF8CF0A428CE8DF0A42E7D
:0202A500FE2237
:1002A700BC000BBE0029EF8DF084FFADF022E4CC3B
:1002B700F875F008EF2FFFEE33FEEC33FCEE9DEC04
:1002C700984005FCEE9DFE0FD5F0E9E4CEFD22ED4A
:1002D700F8F5F0EE8420D21CFEADF075F008EF2F94
:1002E700FFED33FD4007985006D5F0F222C398FD85
:0502F7000FD5F0EA2222
:0E02FC00C3E49FFFE49EFEE49DFDE49CFC2213
:00000001FF
